{
  "_format": "hh-sol-artifact-1",
  "contractName": "NFTMarketplace",
  "sourceName": "contracts/NFTMarketplace.sol",
  "abi": [
    {
      "inputs": [],
      "stateMutability": "nonpayable",
      "type": "constructor"
    },
    {
      "anonymous": false,
      "inputs": [
        {
          "indexed": true,
          "internalType": "address",
          "name": "owner",
          "type": "address"
        },
        {
          "indexed": true,
          "internalType": "address",
          "name": "approved",
          "type": "address"
        },
        {
          "indexed": true,
          "internalType": "uint256",
          "name": "tokenId",
          "type": "uint256"
        }
      ],
      "name": "Approval",
      "type": "event"
    },
    {
      "anonymous": false,
      "inputs": [
        {
          "indexed": true,
          "internalType": "address",
          "name": "owner",
          "type": "address"
        },
        {
          "indexed": true,
          "internalType": "address",
          "name": "operator",
          "type": "address"
        },
        {
          "indexed": false,
          "internalType": "bool",
          "name": "approved",
          "type": "bool"
        }
      ],
      "name": "ApprovalForAll",
      "type": "event"
    },
    {
      "anonymous": false,
      "inputs": [
        {
          "indexed": true,
          "internalType": "uint256",
          "name": "tokenId",
          "type": "uint256"
        },
        {
          "indexed": false,
          "internalType": "address",
          "name": "seller",
          "type": "address"
        },
        {
          "indexed": false,
          "internalType": "address",
          "name": "owner",
          "type": "address"
        },
        {
          "indexed": false,
          "internalType": "uint256",
          "name": "price",
          "type": "uint256"
        },
        {
          "indexed": false,
          "internalType": "bool",
          "name": "sold",
          "type": "bool"
        }
      ],
      "name": "MarketItemCreated",
      "type": "event"
    },
    {
      "anonymous": false,
      "inputs": [
        {
          "indexed": true,
          "internalType": "address",
          "name": "from",
          "type": "address"
        },
        {
          "indexed": true,
          "internalType": "address",
          "name": "to",
          "type": "address"
        },
        {
          "indexed": true,
          "internalType": "uint256",
          "name": "tokenId",
          "type": "uint256"
        }
      ],
      "name": "Transfer",
      "type": "event"
    },
    {
      "inputs": [
        {
          "internalType": "address",
          "name": "to",
          "type": "address"
        },
        {
          "internalType": "uint256",
          "name": "tokenId",
          "type": "uint256"
        }
      ],
      "name": "approve",
      "outputs": [],
      "stateMutability": "nonpayable",
      "type": "function"
    },
    {
      "inputs": [
        {
          "internalType": "address",
          "name": "owner",
          "type": "address"
        }
      ],
      "name": "balanceOf",
      "outputs": [
        {
          "internalType": "uint256",
          "name": "",
          "type": "uint256"
        }
      ],
      "stateMutability": "view",
      "type": "function"
    },
    {
      "inputs": [
        {
          "internalType": "uint256",
          "name": "tokenId",
          "type": "uint256"
        }
      ],
      "name": "createMarketSale",
      "outputs": [],
      "stateMutability": "payable",
      "type": "function"
    },
    {
      "inputs": [
        {
          "internalType": "string",
          "name": "tokenURI",
          "type": "string"
        },
        {
          "internalType": "uint256",
          "name": "price",
          "type": "uint256"
        }
      ],
      "name": "createToken",
      "outputs": [
        {
          "internalType": "uint256",
          "name": "",
          "type": "uint256"
        }
      ],
      "stateMutability": "payable",
      "type": "function"
    },
    {
      "inputs": [],
      "name": "fetchItemsListed",
      "outputs": [
        {
          "components": [
            {
              "internalType": "uint256",
              "name": "tokenId",
              "type": "uint256"
            },
            {
              "internalType": "address payable",
              "name": "seller",
              "type": "address"
            },
            {
              "internalType": "address payable",
              "name": "owner",
              "type": "address"
            },
            {
              "internalType": "uint256",
              "name": "price",
              "type": "uint256"
            },
            {
              "internalType": "bool",
              "name": "sold",
              "type": "bool"
            }
          ],
          "internalType": "struct NFTMarketplace.MarketItem[]",
          "name": "",
          "type": "tuple[]"
        }
      ],
      "stateMutability": "view",
      "type": "function"
    },
    {
      "inputs": [],
      "name": "fetchMarketItems",
      "outputs": [
        {
          "components": [
            {
              "internalType": "uint256",
              "name": "tokenId",
              "type": "uint256"
            },
            {
              "internalType": "address payable",
              "name": "seller",
              "type": "address"
            },
            {
              "internalType": "address payable",
              "name": "owner",
              "type": "address"
            },
            {
              "internalType": "uint256",
              "name": "price",
              "type": "uint256"
            },
            {
              "internalType": "bool",
              "name": "sold",
              "type": "bool"
            }
          ],
          "internalType": "struct NFTMarketplace.MarketItem[]",
          "name": "",
          "type": "tuple[]"
        }
      ],
      "stateMutability": "view",
      "type": "function"
    },
    {
      "inputs": [],
      "name": "fetchMyItems",
      "outputs": [
        {
          "components": [
            {
              "internalType": "uint256",
              "name": "tokenId",
              "type": "uint256"
            },
            {
              "internalType": "address payable",
              "name": "seller",
              "type": "address"
            },
            {
              "internalType": "address payable",
              "name": "owner",
              "type": "address"
            },
            {
              "internalType": "uint256",
              "name": "price",
              "type": "uint256"
            },
            {
              "internalType": "bool",
              "name": "sold",
              "type": "bool"
            }
          ],
          "internalType": "struct NFTMarketplace.MarketItem[]",
          "name": "",
          "type": "tuple[]"
        }
      ],
      "stateMutability": "view",
      "type": "function"
    },
    {
      "inputs": [
        {
          "internalType": "uint256",
          "name": "tokenId",
          "type": "uint256"
        }
      ],
      "name": "getApproved",
      "outputs": [
        {
          "internalType": "address",
          "name": "",
          "type": "address"
        }
      ],
      "stateMutability": "view",
      "type": "function"
    },
    {
      "inputs": [],
      "name": "getListingPrice",
      "outputs": [
        {
          "internalType": "uint256",
          "name": "",
          "type": "uint256"
        }
      ],
      "stateMutability": "view",
      "type": "function"
    },
    {
      "inputs": [
        {
          "internalType": "address",
          "name": "owner",
          "type": "address"
        },
        {
          "internalType": "address",
          "name": "operator",
          "type": "address"
        }
      ],
      "name": "isApprovedForAll",
      "outputs": [
        {
          "internalType": "bool",
          "name": "",
          "type": "bool"
        }
      ],
      "stateMutability": "view",
      "type": "function"
    },
    {
      "inputs": [],
      "name": "name",
      "outputs": [
        {
          "internalType": "string",
          "name": "",
          "type": "string"
        }
      ],
      "stateMutability": "view",
      "type": "function"
    },
    {
      "inputs": [
        {
          "internalType": "uint256",
          "name": "tokenId",
          "type": "uint256"
        }
      ],
      "name": "ownerOf",
      "outputs": [
        {
          "internalType": "address",
          "name": "",
          "type": "address"
        }
      ],
      "stateMutability": "view",
      "type": "function"
    },
    {
      "inputs": [
        {
          "internalType": "uint256",
          "name": "tokenId",
          "type": "uint256"
        },
        {
          "internalType": "uint256",
          "name": "price",
          "type": "uint256"
        }
      ],
      "name": "resellToken",
      "outputs": [],
      "stateMutability": "payable",
      "type": "function"
    },
    {
      "inputs": [
        {
          "internalType": "address",
          "name": "from",
          "type": "address"
        },
        {
          "internalType": "address",
          "name": "to",
          "type": "address"
        },
        {
          "internalType": "uint256",
          "name": "tokenId",
          "type": "uint256"
        }
      ],
      "name": "safeTransferFrom",
      "outputs": [],
      "stateMutability": "nonpayable",
      "type": "function"
    },
    {
      "inputs": [
        {
          "internalType": "address",
          "name": "from",
          "type": "address"
        },
        {
          "internalType": "address",
          "name": "to",
          "type": "address"
        },
        {
          "internalType": "uint256",
          "name": "tokenId",
          "type": "uint256"
        },
        {
          "internalType": "bytes",
          "name": "_data",
          "type": "bytes"
        }
      ],
      "name": "safeTransferFrom",
      "outputs": [],
      "stateMutability": "nonpayable",
      "type": "function"
    },
    {
      "inputs": [
        {
          "internalType": "address",
          "name": "operator",
          "type": "address"
        },
        {
          "internalType": "bool",
          "name": "approved",
          "type": "bool"
        }
      ],
      "name": "setApprovalForAll",
      "outputs": [],
      "stateMutability": "nonpayable",
      "type": "function"
    },
    {
      "inputs": [
        {
          "internalType": "bytes4",
          "name": "interfaceId",
          "type": "bytes4"
        }
      ],
      "name": "supportsInterface",
      "outputs": [
        {
          "internalType": "bool",
          "name": "",
          "type": "bool"
        }
      ],
      "stateMutability": "view",
      "type": "function"
    },
    {
      "inputs": [],
      "name": "symbol",
      "outputs": [
        {
          "internalType": "string",
          "name": "",
          "type": "string"
        }
      ],
      "stateMutability": "view",
      "type": "function"
    },
    {
      "inputs": [
        {
          "internalType": "uint256",
          "name": "tokenId",
          "type": "uint256"
        }
      ],
      "name": "tokenURI",
      "outputs": [
        {
          "internalType": "string",
          "name": "",
          "type": "string"
        }
      ],
      "stateMutability": "view",
      "type": "function"
    },
    {
      "inputs": [
        {
          "internalType": "address",
          "name": "from",
          "type": "address"
        },
        {
          "internalType": "address",
          "name": "to",
          "type": "address"
        },
        {
          "internalType": "uint256",
          "name": "tokenId",
          "type": "uint256"
        }
      ],
      "name": "transferFrom",
      "outputs": [],
      "stateMutability": "nonpayable",
      "type": "function"
    },
    {
      "inputs": [
        {
          "internalType": "uint256",
          "name": "_listingPrice",
          "type": "uint256"
        }
      ],
      "name": "updateListingPrice",
      "outputs": [],
      "stateMutability": "nonpayable",
      "type": "function"
    }
  ],
  "bytecode": "0x60806040526658d15e176280006009553480156200001c57600080fd5b506040518060400160405280601081526020017f4d657461766572736520546f6b656e73000000000000000000000000000000008152506040518060400160405280600481526020017f4d455454000000000000000000000000000000000000000000000000000000008152508160009080519060200190620000a192919062000104565b508060019080519060200190620000ba92919062000104565b50505033600a60006101000a81548173ffffffffffffffffffffffffffffffffffffffff021916908373ffffffffffffffffffffffffffffffffffffffff16021790555062000219565b8280546200011290620001b4565b90600052602060002090601f01602090048101928262000136576000855562000182565b82601f106200015157805160ff191683800117855562000182565b8280016001018555821562000182579182015b828111156200018157825182559160200191906001019062000164565b5b50905062000191919062000195565b5090565b5b80821115620001b057600081600090555060010162000196565b5090565b60006002820490506001821680620001cd57607f821691505b60208210811415620001e457620001e3620001ea565b5b50919050565b7f4e487b7100000000000000000000000000000000000000000000000000000000600052602260045260246000fd5b61435c80620002296000396000f3fe60806040526004361061012a5760003560e01c80636352211e116100ab578063ae677aa31161006f578063ae677aa3146103f9578063b88d4fde14610422578063be9af5361461044b578063c87b56dd14610467578063e219fc75146104a4578063e985e9c5146104c05761012a565b80636352211e146102fb57806370a082311461033857806372b3b6201461037557806395d89b41146103a5578063a22cb465146103d05761012a565b806312e85585116100f257806312e855851461022857806315c9ae101461025357806323b872dd1461027e57806342842e0e146102a757806345f8fa80146102d05761012a565b806301ffc9a71461012f57806306fdde031461016c578063081812fc14610197578063095ea7b3146101d45780630f08efe0146101fd575b600080fd5b34801561013b57600080fd5b5061015660048036038101906101519190612e0a565b6104fd565b6040516101639190613507565b60405180910390f35b34801561017857600080fd5b506101816105df565b60405161018e9190613522565b60405180910390f35b3480156101a357600080fd5b506101be60048036038101906101b99190612eb0565b610671565b6040516101cb9190613439565b60405180910390f35b3480156101e057600080fd5b506101fb60048036038101906101f69190612dce565b6106f6565b005b34801561020957600080fd5b5061021261080e565b60405161021f91906134e5565b60405180910390f35b34801561023457600080fd5b5061023d610aae565b60405161024a9190613824565b60405180910390f35b34801561025f57600080fd5b50610268610ab8565b60405161027591906134e5565b60405180910390f35b34801561028a57600080fd5b506102a560048036038101906102a09190612cc8565b610dec565b005b3480156102b357600080fd5b506102ce60048036038101906102c99190612cc8565b610e4c565b005b3480156102dc57600080fd5b506102e5610e6c565b6040516102f291906134e5565b60405180910390f35b34801561030757600080fd5b50610322600480360381019061031d9190612eb0565b6111a0565b60405161032f9190613439565b60405180910390f35b34801561034457600080fd5b5061035f600480360381019061035a9190612c63565b611252565b60405161036c9190613824565b60405180910390f35b61038f600480360381019061038a9190612e5c565b61130a565b60405161039c9190613824565b60405180910390f35b3480156103b157600080fd5b506103ba61134c565b6040516103c79190613522565b60405180910390f35b3480156103dc57600080fd5b506103f760048036038101906103f29190612d92565b6113de565b005b34801561040557600080fd5b50610420600480360381019061041b9190612eb0565b6113f4565b005b34801561042e57600080fd5b5061044960048036038101906104449190612d17565b61148e565b005b61046560048036038101906104609190612eb0565b6114f0565b005b34801561047357600080fd5b5061048e60048036038101906104899190612eb0565b6116ec565b60405161049b9190613522565b60405180910390f35b6104be60048036038101906104b99190612ed9565b61183e565b005b3480156104cc57600080fd5b506104e760048036038101906104e29190612c8c565b6119f1565b6040516104f49190613507565b60405180910390f35b60007f80ac58cd000000000000000000000000000000000000000000000000000000007bffffffffffffffffffffffffffffffffffffffffffffffffffffffff1916827bffffffffffffffffffffffffffffffffffffffffffffffffffffffff191614806105c857507f5b5e139f000000000000000000000000000000000000000000000000000000007bffffffffffffffffffffffffffffffffffffffffffffffffffffffff1916827bffffffffffffffffffffffffffffffffffffffffffffffffffffffff1916145b806105d857506105d782611a85565b5b9050919050565b6060600080546105ee90613ac5565b80601f016020809104026020016040519081016040528092919081815260200182805461061a90613ac5565b80156106675780601f1061063c57610100808354040283529160200191610667565b820191906000526020600020905b81548152906001019060200180831161064a57829003601f168201915b5050505050905090565b600061067c82611aef565b6106bb576040517f08c379a00000000000000000000000000000000000000000000000000000000081526004016106b290613744565b60405180910390fd5b6004600083815260200190815260200160002060009054906101000a900473ffffffffffffffffffffffffffffffffffffffff169050919050565b6000610701826111a0565b90508073ffffffffffffffffffffffffffffffffffffffff168373ffffffffffffffffffffffffffffffffffffffff161415610772576040517f08c379a0000000000000000000000000000000000000000000000000000000008152600401610769906137c4565b60405180910390fd5b8073ffffffffffffffffffffffffffffffffffffffff16610791611b5b565b73ffffffffffffffffffffffffffffffffffffffff1614806107c057506107bf816107ba611b5b565b6119f1565b5b6107ff576040517f08c379a00000000000000000000000000000000000000000000000000000000081526004016107f690613664565b60405180910390fd5b6108098383611b63565b505050565b6060600061081c6007611c1c565b9050600061082a6008611c1c565b8261083591906139c9565b90506000808267ffffffffffffffff81111561087a577f4e487b7100000000000000000000000000000000000000000000000000000000600052604160045260246000fd5b6040519080825280602002602001820160405280156108b357816020015b6108a0612a2a565b8152602001906001900390816108985790505b50905060005b84811015610aa35760006001826108d09190613942565b90503073ffffffffffffffffffffffffffffffffffffffff16600b600083815260200190815260200160002060020160009054906101000a900473ffffffffffffffffffffffffffffffffffffffff1673ffffffffffffffffffffffffffffffffffffffff161415610a8f576000600b60008381526020019081526020016000209050806040518060a0016040529081600082015481526020016001820160009054906101000a900473ffffffffffffffffffffffffffffffffffffffff1673ffffffffffffffffffffffffffffffffffffffff1673ffffffffffffffffffffffffffffffffffffffff1681526020016002820160009054906101000a900473ffffffffffffffffffffffffffffffffffffffff1673ffffffffffffffffffffffffffffffffffffffff1673ffffffffffffffffffffffffffffffffffffffff168152602001600382015481526020016004820160009054906101000a900460ff161515151581525050848681518110610a73577f4e487b7100000000000000000000000000000000000000000000000000000000600052603260045260246000fd5b6020026020010181905250600185610a8b9190613942565b9450505b508080610a9b90613b28565b9150506108b9565b508094505050505090565b6000600954905090565b60606000610ac66007611c1c565b905060008060005b83811015610b75576000600182610ae59190613942565b90503373ffffffffffffffffffffffffffffffffffffffff16600b600083815260200190815260200160002060020160009054906101000a900473ffffffffffffffffffffffffffffffffffffffff1673ffffffffffffffffffffffffffffffffffffffff161415610b6157600184610b5e9190613942565b93505b508080610b6d90613b28565b915050610ace565b5060008267ffffffffffffffff811115610bb8577f4e487b7100000000000000000000000000000000000000000000000000000000600052604160045260246000fd5b604051908082528060200260200182016040528015610bf157816020015b610bde612a2a565b815260200190600190039081610bd65790505b50905060005b84811015610de1576000600182610c0e9190613942565b90503373ffffffffffffffffffffffffffffffffffffffff16600b600083815260200190815260200160002060020160009054906101000a900473ffffffffffffffffffffffffffffffffffffffff1673ffffffffffffffffffffffffffffffffffffffff161415610dcd576000600b60008381526020019081526020016000209050806040518060a0016040529081600082015481526020016001820160009054906101000a900473ffffffffffffffffffffffffffffffffffffffff1673ffffffffffffffffffffffffffffffffffffffff1673ffffffffffffffffffffffffffffffffffffffff1681526020016002820160009054906101000a900473ffffffffffffffffffffffffffffffffffffffff1673ffffffffffffffffffffffffffffffffffffffff1673ffffffffffffffffffffffffffffffffffffffff168152602001600382015481526020016004820160009054906101000a900460ff161515151581525050848681518110610db1577f4e487b7100000000000000000000000000000000000000000000000000000000600052603260045260246000fd5b6020026020010181905250600185610dc99190613942565b9450505b508080610dd990613b28565b915050610bf7565b508094505050505090565b610dfd610df7611b5b565b82611c2a565b610e3c576040517f08c379a0000000000000000000000000000000000000000000000000000000008152600401610e3390613804565b60405180910390fd5b610e47838383611d08565b505050565b610e678383836040518060200160405280600081525061148e565b505050565b60606000610e7a6007611c1c565b905060008060005b83811015610f29576000600182610e999190613942565b90503373ffffffffffffffffffffffffffffffffffffffff16600b600083815260200190815260200160002060010160009054906101000a900473ffffffffffffffffffffffffffffffffffffffff1673ffffffffffffffffffffffffffffffffffffffff161415610f1557600184610f129190613942565b93505b508080610f2190613b28565b915050610e82565b5060008267ffffffffffffffff811115610f6c577f4e487b7100000000000000000000000000000000000000000000000000000000600052604160045260246000fd5b604051908082528060200260200182016040528015610fa557816020015b610f92612a2a565b815260200190600190039081610f8a5790505b50905060005b84811015611195576000600182610fc29190613942565b90503373ffffffffffffffffffffffffffffffffffffffff16600b600083815260200190815260200160002060010160009054906101000a900473ffffffffffffffffffffffffffffffffffffffff1673ffffffffffffffffffffffffffffffffffffffff161415611181576000600b60008381526020019081526020016000209050806040518060a0016040529081600082015481526020016001820160009054906101000a900473ffffffffffffffffffffffffffffffffffffffff1673ffffffffffffffffffffffffffffffffffffffff1673ffffffffffffffffffffffffffffffffffffffff1681526020016002820160009054906101000a900473ffffffffffffffffffffffffffffffffffffffff1673ffffffffffffffffffffffffffffffffffffffff1673ffffffffffffffffffffffffffffffffffffffff168152602001600382015481526020016004820160009054906101000a900460ff161515151581525050848681518110611165577f4e487b7100000000000000000000000000000000000000000000000000000000600052603260045260246000fd5b602002602001018190525060018561117d9190613942565b9450505b50808061118d90613b28565b915050610fab565b508094505050505090565b6000806002600084815260200190815260200160002060009054906101000a900473ffffffffffffffffffffffffffffffffffffffff169050600073ffffffffffffffffffffffffffffffffffffffff168173ffffffffffffffffffffffffffffffffffffffff161415611249576040517f08c379a0000000000000000000000000000000000000000000000000000000008152600401611240906136a4565b60405180910390fd5b80915050919050565b60008073ffffffffffffffffffffffffffffffffffffffff168273ffffffffffffffffffffffffffffffffffffffff1614156112c3576040517f08c379a00000000000000000000000000000000000000000000000000000000081526004016112ba90613684565b60405180910390fd5b600360008373ffffffffffffffffffffffffffffffffffffffff1673ffffffffffffffffffffffffffffffffffffffff168152602001908152602001600020549050919050565b60006113166007611f6f565b60006113226007611c1c565b905061132e3382611f85565b611338818561215f565b61134281846121d3565b8091505092915050565b60606001805461135b90613ac5565b80601f016020809104026020016040519081016040528092919081815260200182805461138790613ac5565b80156113d45780601f106113a9576101008083540402835291602001916113d4565b820191906000526020600020905b8154815290600101906020018083116113b757829003601f168201915b5050505050905090565b6113f06113e9611b5b565b83836123d6565b5050565b3373ffffffffffffffffffffffffffffffffffffffff16600a60009054906101000a900473ffffffffffffffffffffffffffffffffffffffff1673ffffffffffffffffffffffffffffffffffffffff1614611484576040517f08c379a000000000000000000000000000000000000000000000000000000000815260040161147b906135c4565b60405180910390fd5b8060098190555050565b61149f611499611b5b565b83611c2a565b6114de576040517f08c379a00000000000000000000000000000000000000000000000000000000081526004016114d590613804565b60405180910390fd5b6114ea84848484612543565b50505050565b6000600b60008381526020019081526020016000209050600081600301549050803414611552576040517f08c379a0000000000000000000000000000000000000000000000000000000008152600401611549906136e4565b60405180910390fd5b60008260010160009054906101000a900473ffffffffffffffffffffffffffffffffffffffff169050338360020160006101000a81548173ffffffffffffffffffffffffffffffffffffffff021916908373ffffffffffffffffffffffffffffffffffffffff16021790555060018360040160006101000a81548160ff02191690831515021790555060008360010160006101000a81548173ffffffffffffffffffffffffffffffffffffffff021916908373ffffffffffffffffffffffffffffffffffffffff1602179055506116296008611f6f565b611634303386611d08565b600a60009054906101000a900473ffffffffffffffffffffffffffffffffffffffff1673ffffffffffffffffffffffffffffffffffffffff166108fc6009549081150290604051600060405180830381858888f1935050505015801561169e573d6000803e3d6000fd5b508073ffffffffffffffffffffffffffffffffffffffff166108fc349081150290604051600060405180830381858888f193505050501580156116e5573d6000803e3d6000fd5b5050505050565b60606116f782611aef565b611736576040517f08c379a000000000000000000000000000000000000000000000000000000000815260040161172d90613724565b60405180910390fd5b600060066000848152602001908152602001600020805461175690613ac5565b80601f016020809104026020016040519081016040528092919081815260200182805461178290613ac5565b80156117cf5780601f106117a4576101008083540402835291602001916117cf565b820191906000526020600020905b8154815290600101906020018083116117b257829003601f168201915b5050505050905060006117e061259f565b90506000815114156117f6578192505050611839565b60008251111561182b578082604051602001611813929190613415565b60405160208183030381529060405292505050611839565b611834846125b6565b925050505b919050565b6000600b600084815260200190815260200160002090503373ffffffffffffffffffffffffffffffffffffffff168160020160009054906101000a900473ffffffffffffffffffffffffffffffffffffffff1673ffffffffffffffffffffffffffffffffffffffff16146118e7576040517f08c379a00000000000000000000000000000000000000000000000000000000081526004016118de90613624565b60405180910390fd5b600954341461192b576040517f08c379a000000000000000000000000000000000000000000000000000000000815260040161192290613764565b60405180910390fd5b60008160040160006101000a81548160ff021916908315150217905550818160030181905550338160010160006101000a81548173ffffffffffffffffffffffffffffffffffffffff021916908373ffffffffffffffffffffffffffffffffffffffff160217905550308160020160006101000a81548173ffffffffffffffffffffffffffffffffffffffff021916908373ffffffffffffffffffffffffffffffffffffffff1602179055506119e1600861265d565b6119ec333085611d08565b505050565b6000600560008473ffffffffffffffffffffffffffffffffffffffff1673ffffffffffffffffffffffffffffffffffffffff16815260200190815260200160002060008373ffffffffffffffffffffffffffffffffffffffff1673ffffffffffffffffffffffffffffffffffffffff16815260200190815260200160002060009054906101000a900460ff16905092915050565b60007f01ffc9a7000000000000000000000000000000000000000000000000000000007bffffffffffffffffffffffffffffffffffffffffffffffffffffffff1916827bffffffffffffffffffffffffffffffffffffffffffffffffffffffff1916149050919050565b60008073ffffffffffffffffffffffffffffffffffffffff166002600084815260200190815260200160002060009054906101000a900473ffffffffffffffffffffffffffffffffffffffff1673ffffffffffffffffffffffffffffffffffffffff1614159050919050565b600033905090565b816004600083815260200190815260200160002060006101000a81548173ffffffffffffffffffffffffffffffffffffffff021916908373ffffffffffffffffffffffffffffffffffffffff160217905550808273ffffffffffffffffffffffffffffffffffffffff16611bd6836111a0565b73ffffffffffffffffffffffffffffffffffffffff167f8c5be1e5ebec7d5bd14f71427d1e84f3dd0314c0f7b2291e5b200ac8c7c3b92560405160405180910390a45050565b600081600001549050919050565b6000611c3582611aef565b611c74576040517f08c379a0000000000000000000000000000000000000000000000000000000008152600401611c6b90613644565b60405180910390fd5b6000611c7f836111a0565b90508073ffffffffffffffffffffffffffffffffffffffff168473ffffffffffffffffffffffffffffffffffffffff161480611cee57508373ffffffffffffffffffffffffffffffffffffffff16611cd684610671565b73ffffffffffffffffffffffffffffffffffffffff16145b80611cff5750611cfe81856119f1565b5b91505092915050565b8273ffffffffffffffffffffffffffffffffffffffff16611d28826111a0565b73ffffffffffffffffffffffffffffffffffffffff1614611d7e576040517f08c379a0000000000000000000000000000000000000000000000000000000008152600401611d7590613584565b60405180910390fd5b600073ffffffffffffffffffffffffffffffffffffffff168273ffffffffffffffffffffffffffffffffffffffff161415611dee576040517f08c379a0000000000000000000000000000000000000000000000000000000008152600401611de5906135e4565b60405180910390fd5b611df98383836126b9565b611e04600082611b63565b6001600360008573ffffffffffffffffffffffffffffffffffffffff1673ffffffffffffffffffffffffffffffffffffffff1681526020019081526020016000206000828254611e5491906139c9565b925050819055506001600360008473ffffffffffffffffffffffffffffffffffffffff1673ffffffffffffffffffffffffffffffffffffffff1681526020019081526020016000206000828254611eab9190613942565b92505081905550816002600083815260200190815260200160002060006101000a81548173ffffffffffffffffffffffffffffffffffffffff021916908373ffffffffffffffffffffffffffffffffffffffff160217905550808273ffffffffffffffffffffffffffffffffffffffff168473ffffffffffffffffffffffffffffffffffffffff167fddf252ad1be2c89b69c2b068fc378daa952ba7f163c4a11628f55a4df523b3ef60405160405180910390a4611f6a8383836126be565b505050565b6001816000016000828254019250508190555050565b600073ffffffffffffffffffffffffffffffffffffffff168273ffffffffffffffffffffffffffffffffffffffff161415611ff5576040517f08c379a0000000000000000000000000000000000000000000000000000000008152600401611fec90613704565b60405180910390fd5b611ffe81611aef565b1561203e576040517f08c379a0000000000000000000000000000000000000000000000000000000008152600401612035906135a4565b60405180910390fd5b61204a600083836126b9565b6001600360008473ffffffffffffffffffffffffffffffffffffffff1673ffffffffffffffffffffffffffffffffffffffff168152602001908152602001600020600082825461209a9190613942565b92505081905550816002600083815260200190815260200160002060006101000a81548173ffffffffffffffffffffffffffffffffffffffff021916908373ffffffffffffffffffffffffffffffffffffffff160217905550808273ffffffffffffffffffffffffffffffffffffffff16600073ffffffffffffffffffffffffffffffffffffffff167fddf252ad1be2c89b69c2b068fc378daa952ba7f163c4a11628f55a4df523b3ef60405160405180910390a461215b600083836126be565b5050565b61216882611aef565b6121a7576040517f08c379a000000000000000000000000000000000000000000000000000000000815260040161219e906136c4565b60405180910390fd5b806006600084815260200190815260200160002090805190602001906121ce929190612a87565b505050565b60008111612216576040517f08c379a000000000000000000000000000000000000000000000000000000000815260040161220d906137a4565b60405180910390fd5b600954341461225a576040517f08c379a0000000000000000000000000000000000000000000000000000000008152600401612251906137e4565b60405180910390fd5b6040518060a001604052808381526020013373ffffffffffffffffffffffffffffffffffffffff1681526020013073ffffffffffffffffffffffffffffffffffffffff16815260200182815260200160001515815250600b60008481526020019081526020016000206000820151816000015560208201518160010160006101000a81548173ffffffffffffffffffffffffffffffffffffffff021916908373ffffffffffffffffffffffffffffffffffffffff16021790555060408201518160020160006101000a81548173ffffffffffffffffffffffffffffffffffffffff021916908373ffffffffffffffffffffffffffffffffffffffff1602179055506060820151816003015560808201518160040160006101000a81548160ff021916908315150217905550905050612393333084611d08565b817fb640004f1d14576d0c209e240cad0410e0d8c0c33a09375861fbadae2588a98d33308460006040516123ca9493929190613454565b60405180910390a25050565b8173ffffffffffffffffffffffffffffffffffffffff168373ffffffffffffffffffffffffffffffffffffffff161415612445576040517f08c379a000000000000000000000000000000000000000000000000000000000815260040161243c90613604565b60405180910390fd5b80600560008573ffffffffffffffffffffffffffffffffffffffff1673ffffffffffffffffffffffffffffffffffffffff16815260200190815260200160002060008473ffffffffffffffffffffffffffffffffffffffff1673ffffffffffffffffffffffffffffffffffffffff16815260200190815260200160002060006101000a81548160ff0219169083151502179055508173ffffffffffffffffffffffffffffffffffffffff168373ffffffffffffffffffffffffffffffffffffffff167f17307eab39ab6107e8899845ad3d59bd9653f200f220920489ca2b5937696c31836040516125369190613507565b60405180910390a3505050565b61254e848484611d08565b61255a848484846126c3565b612599576040517f08c379a000000000000000000000000000000000000000000000000000000000815260040161259090613564565b60405180910390fd5b50505050565b606060405180602001604052806000815250905090565b60606125c182611aef565b612600576040517f08c379a00000000000000000000000000000000000000000000000000000000081526004016125f790613784565b60405180910390fd5b600061260a61259f565b9050600081511161262a5760405180602001604052806000815250612655565b806126348461285a565b604051602001612645929190613415565b6040516020818303038152906040525b915050919050565b600081600001549050600081116126a9576040517f08c379a00000000000000000000000000000000000000000000000000000000081526004016126a090613544565b60405180910390fd5b6001810382600001819055505050565b505050565b505050565b60006126e48473ffffffffffffffffffffffffffffffffffffffff16612a07565b1561284d578373ffffffffffffffffffffffffffffffffffffffff1663150b7a0261270d611b5b565b8786866040518563ffffffff1660e01b815260040161272f9493929190613499565b602060405180830381600087803b15801561274957600080fd5b505af192505050801561277a57506040513d601f19601f820116820180604052508101906127779190612e33565b60015b6127fd573d80600081146127aa576040519150601f19603f3d011682016040523d82523d6000602084013e6127af565b606091505b506000815114156127f5576040517f08c379a00000000000000000000000000000000000000000000000000000000081526004016127ec90613564565b60405180910390fd5b805181602001fd5b63150b7a0260e01b7bffffffffffffffffffffffffffffffffffffffffffffffffffffffff1916817bffffffffffffffffffffffffffffffffffffffffffffffffffffffff191614915050612852565b600190505b949350505050565b606060008214156128a2576040518060400160405280600181526020017f30000000000000000000000000000000000000000000000000000000000000008152509050612a02565b600082905060005b600082146128d45780806128bd90613b28565b915050600a826128cd9190613998565b91506128aa565b60008167ffffffffffffffff811115612916577f4e487b7100000000000000000000000000000000000000000000000000000000600052604160045260246000fd5b6040519080825280601f01601f1916602001820160405280156129485781602001600182028036833780820191505090505b5090505b600085146129fb5760018261296191906139c9565b9150600a856129709190613b71565b603061297c9190613942565b60f81b8183815181106129b8577f4e487b7100000000000000000000000000000000000000000000000000000000600052603260045260246000fd5b60200101907effffffffffffffffffffffffffffffffffffffffffffffffffffffffffffff1916908160001a905350600a856129f49190613998565b945061294c565b8093505050505b919050565b6000808273ffffffffffffffffffffffffffffffffffffffff163b119050919050565b6040518060a0016040528060008152602001600073ffffffffffffffffffffffffffffffffffffffff168152602001600073ffffffffffffffffffffffffffffffffffffffff168152602001600081526020016000151581525090565b828054612a9390613ac5565b90600052602060002090601f016020900481019282612ab55760008555612afc565b82601f10612ace57805160ff1916838001178555612afc565b82800160010185558215612afc579182015b82811115612afb578251825591602001919060010190612ae0565b5b509050612b099190612b0d565b5090565b5b80821115612b26576000816000905550600101612b0e565b5090565b6000612b3d612b3884613864565b61383f565b905082815260208101848484011115612b5557600080fd5b612b60848285613a83565b509392505050565b6000612b7b612b7684613895565b61383f565b905082815260208101848484011115612b9357600080fd5b612b9e848285613a83565b509392505050565b600081359050612bb5816142ca565b92915050565b600081359050612bca816142e1565b92915050565b600081359050612bdf816142f8565b92915050565b600081519050612bf4816142f8565b92915050565b600082601f830112612c0b57600080fd5b8135612c1b848260208601612b2a565b91505092915050565b600082601f830112612c3557600080fd5b8135612c45848260208601612b68565b91505092915050565b600081359050612c5d8161430f565b92915050565b600060208284031215612c7557600080fd5b6000612c8384828501612ba6565b91505092915050565b60008060408385031215612c9f57600080fd5b6000612cad85828601612ba6565b9250506020612cbe85828601612ba6565b9150509250929050565b600080600060608486031215612cdd57600080fd5b6000612ceb86828701612ba6565b9350506020612cfc86828701612ba6565b9250506040612d0d86828701612c4e565b9150509250925092565b60008060008060808587031215612d2d57600080fd5b6000612d3b87828801612ba6565b9450506020612d4c87828801612ba6565b9350506040612d5d87828801612c4e565b925050606085013567ffffffffffffffff811115612d7a57600080fd5b612d8687828801612bfa565b91505092959194509250565b60008060408385031215612da557600080fd5b6000612db385828601612ba6565b9250506020612dc485828601612bbb565b9150509250929050565b60008060408385031215612de157600080fd5b6000612def85828601612ba6565b9250506020612e0085828601612c4e565b9150509250929050565b600060208284031215612e1c57600080fd5b6000612e2a84828501612bd0565b91505092915050565b600060208284031215612e4557600080fd5b6000612e5384828501612be5565b91505092915050565b60008060408385031215612e6f57600080fd5b600083013567ffffffffffffffff811115612e8957600080fd5b612e9585828601612c24565b9250506020612ea685828601612c4e565b9150509250929050565b600060208284031215612ec257600080fd5b6000612ed084828501612c4e565b91505092915050565b60008060408385031215612eec57600080fd5b6000612efa85828601612c4e565b9250506020612f0b85828601612c4e565b9150509250929050565b6000612f21838361338f565b60a08301905092915050565b612f3681613a0f565b82525050565b612f45816139fd565b82525050565b6000612f56826138d6565b612f608185613904565b9350612f6b836138c6565b8060005b83811015612f9c578151612f838882612f15565b9750612f8e836138f7565b925050600181019050612f6f565b5085935050505092915050565b612fb281613a21565b82525050565b612fc181613a21565b82525050565b6000612fd2826138e1565b612fdc8185613915565b9350612fec818560208601613a92565b612ff581613c5e565b840191505092915050565b600061300b826138ec565b6130158185613926565b9350613025818560208601613a92565b61302e81613c5e565b840191505092915050565b6000613044826138ec565b61304e8185613937565b935061305e818560208601613a92565b80840191505092915050565b6000613077601b83613926565b915061308282613c6f565b602082019050919050565b600061309a603283613926565b91506130a582613c98565b604082019050919050565b60006130bd602583613926565b91506130c882613ce7565b604082019050919050565b60006130e0601c83613926565b91506130eb82613d36565b602082019050919050565b6000613103603383613926565b915061310e82613d5f565b604082019050919050565b6000613126602483613926565b915061313182613dae565b604082019050919050565b6000613149601983613926565b915061315482613dfd565b602082019050919050565b600061316c602b83613926565b915061317782613e26565b604082019050919050565b600061318f602c83613926565b915061319a82613e75565b604082019050919050565b60006131b2603883613926565b91506131bd82613ec4565b604082019050919050565b60006131d5602a83613926565b91506131e082613f13565b604082019050919050565b60006131f8602983613926565b915061320382613f62565b604082019050919050565b600061321b602e83613926565b915061322682613fb1565b604082019050919050565b600061323e604083613926565b915061324982614000565b604082019050919050565b6000613261602083613926565b915061326c8261404f565b602082019050919050565b6000613284603183613926565b915061328f82614078565b604082019050919050565b60006132a7602c83613926565b91506132b2826140c7565b604082019050919050565b60006132ca602283613926565b91506132d582614116565b604082019050919050565b60006132ed602f83613926565b91506132f882614165565b604082019050919050565b6000613310601883613926565b915061331b826141b4565b602082019050919050565b6000613333602183613926565b915061333e826141dd565b604082019050919050565b6000613356602483613926565b91506133618261422c565b604082019050919050565b6000613379603183613926565b91506133848261427b565b604082019050919050565b60a0820160008201516133a560008501826133f7565b5060208201516133b86020850182612f2d565b5060408201516133cb6040850182612f2d565b5060608201516133de60608501826133f7565b5060808201516133f16080850182612fa9565b50505050565b61340081613a79565b82525050565b61340f81613a79565b82525050565b60006134218285613039565b915061342d8284613039565b91508190509392505050565b600060208201905061344e6000830184612f3c565b92915050565b60006080820190506134696000830187612f3c565b6134766020830186612f3c565b6134836040830185613406565b6134906060830184612fb8565b95945050505050565b60006080820190506134ae6000830187612f3c565b6134bb6020830186612f3c565b6134c86040830185613406565b81810360608301526134da8184612fc7565b905095945050505050565b600060208201905081810360008301526134ff8184612f4b565b905092915050565b600060208201905061351c6000830184612fb8565b92915050565b6000602082019050818103600083015261353c8184613000565b905092915050565b6000602082019050818103600083015261355d8161306a565b9050919050565b6000602082019050818103600083015261357d8161308d565b9050919050565b6000602082019050818103600083015261359d816130b0565b9050919050565b600060208201905081810360008301526135bd816130d3565b9050919050565b600060208201905081810360008301526135dd816130f6565b9050919050565b600060208201905081810360008301526135fd81613119565b9050919050565b6000602082019050818103600083015261361d8161313c565b9050919050565b6000602082019050818103600083015261363d8161315f565b9050919050565b6000602082019050818103600083015261365d81613182565b9050919050565b6000602082019050818103600083015261367d816131a5565b9050919050565b6000602082019050818103600083015261369d816131c8565b9050919050565b600060208201905081810360008301526136bd816131eb565b9050919050565b600060208201905081810360008301526136dd8161320e565b9050919050565b600060208201905081810360008301526136fd81613231565b9050919050565b6000602082019050818103600083015261371d81613254565b9050919050565b6000602082019050818103600083015261373d81613277565b9050919050565b6000602082019050818103600083015261375d8161329a565b9050919050565b6000602082019050818103600083015261377d816132bd565b9050919050565b6000602082019050818103600083015261379d816132e0565b9050919050565b600060208201905081810360008301526137bd81613303565b9050919050565b600060208201905081810360008301526137dd81613326565b9050919050565b600060208201905081810360008301526137fd81613349565b9050919050565b6000602082019050818103600083015261381d8161336c565b9050919050565b60006020820190506138396000830184613406565b92915050565b600061384961385a565b90506138558282613af7565b919050565b6000604051905090565b600067ffffffffffffffff82111561387f5761387e613c2f565b5b61388882613c5e565b9050602081019050919050565b600067ffffffffffffffff8211156138b0576138af613c2f565b5b6138b982613c5e565b9050602081019050919050565b6000819050602082019050919050565b600081519050919050565b600081519050919050565b600081519050919050565b6000602082019050919050565b600082825260208201905092915050565b600082825260208201905092915050565b600082825260208201905092915050565b600081905092915050565b600061394d82613a79565b915061395883613a79565b9250827fffffffffffffffffffffffffffffffffffffffffffffffffffffffffffffffff0382111561398d5761398c613ba2565b5b828201905092915050565b60006139a382613a79565b91506139ae83613a79565b9250826139be576139bd613bd1565b5b828204905092915050565b60006139d482613a79565b91506139df83613a79565b9250828210156139f2576139f1613ba2565b5b828203905092915050565b6000613a0882613a59565b9050919050565b6000613a1a82613a59565b9050919050565b60008115159050919050565b60007fffffffff0000000000000000000000000000000000000000000000000000000082169050919050565b600073ffffffffffffffffffffffffffffffffffffffff82169050919050565b6000819050919050565b82818337600083830152505050565b60005b83811015613ab0578082015181840152602081019050613a95565b83811115613abf576000848401525b50505050565b60006002820490506001821680613add57607f821691505b60208210811415613af157613af0613c00565b5b50919050565b613b0082613c5e565b810181811067ffffffffffffffff82111715613b1f57613b1e613c2f565b5b80604052505050565b6000613b3382613a79565b91507fffffffffffffffffffffffffffffffffffffffffffffffffffffffffffffffff821415613b6657613b65613ba2565b5b600182019050919050565b6000613b7c82613a79565b9150613b8783613a79565b925082613b9757613b96613bd1565b5b828206905092915050565b7f4e487b7100000000000000000000000000000000000000000000000000000000600052601160045260246000fd5b7f4e487b7100000000000000000000000000000000000000000000000000000000600052601260045260246000fd5b7f4e487b7100000000000000000000000000000000000000000000000000000000600052602260045260246000fd5b7f4e487b7100000000000000000000000000000000000000000000000000000000600052604160045260246000fd5b6000601f19601f8301169050919050565b7f436f756e7465723a2064656372656d656e74206f766572666c6f770000000000600082015250565b7f4552433732313a207472616e7366657220746f206e6f6e20455243373231526560008201527f63656976657220696d706c656d656e7465720000000000000000000000000000602082015250565b7f4552433732313a207472616e736665722066726f6d20696e636f72726563742060008201527f6f776e6572000000000000000000000000000000000000000000000000000000602082015250565b7f4552433732313a20746f6b656e20616c7265616479206d696e74656400000000600082015250565b7f4f6e6c79206d61726b6574706c616365206f776e65722063616e20757064617460008201527f6520746865206c697374696e6720707269636500000000000000000000000000602082015250565b7f4552433732313a207472616e7366657220746f20746865207a65726f2061646460008201527f7265737300000000000000000000000000000000000000000000000000000000602082015250565b7f4552433732313a20617070726f766520746f2063616c6c657200000000000000600082015250565b7f4f6e6c79206974656d206f776e65722063616e20706572666f726d207468697360008201527f206f7065726174696f6e2e000000000000000000000000000000000000000000602082015250565b7f4552433732313a206f70657261746f7220717565727920666f72206e6f6e657860008201527f697374656e7420746f6b656e0000000000000000000000000000000000000000602082015250565b7f4552433732313a20617070726f76652063616c6c6572206973206e6f74206f7760008201527f6e6572206e6f7220617070726f76656420666f7220616c6c0000000000000000602082015250565b7f4552433732313a2062616c616e636520717565727920666f7220746865207a6560008201527f726f206164647265737300000000000000000000000000000000000000000000602082015250565b7f4552433732313a206f776e657220717565727920666f72206e6f6e657869737460008201527f656e7420746f6b656e0000000000000000000000000000000000000000000000602082015250565b7f45524337323155524953746f726167653a2055524920736574206f66206e6f6e60008201527f6578697374656e7420746f6b656e000000000000000000000000000000000000602082015250565b7f506c65617365207375626d6974207468652061736b696e67207072696365206960008201527f6e206f7264657220746f20636f6d706c65746520746865207075726368617365602082015250565b7f4552433732313a206d696e7420746f20746865207a65726f2061646472657373600082015250565b7f45524337323155524953746f726167653a2055524920717565727920666f722060008201527f6e6f6e6578697374656e7420746f6b656e000000000000000000000000000000602082015250565b7f4552433732313a20617070726f76656420717565727920666f72206e6f6e657860008201527f697374656e7420746f6b656e0000000000000000000000000000000000000000602082015250565b7f5072696365206d75737420657175616c20746f206c697374696e67207072696360008201527f652e000000000000000000000000000000000000000000000000000000000000602082015250565b7f4552433732314d657461646174613a2055524920717565727920666f72206e6f60008201527f6e6578697374656e7420746f6b656e0000000000000000000000000000000000602082015250565b7f5072696365206d757374206265206174206c6561737420310000000000000000600082015250565b7f4552433732313a20617070726f76616c20746f2063757272656e74206f776e6560008201527f7200000000000000000000000000000000000000000000000000000000000000602082015250565b7f5072696365206d75737420626520657175616c20746f206c697374696e67207060008201527f7269636500000000000000000000000000000000000000000000000000000000602082015250565b7f4552433732313a207472616e736665722063616c6c6572206973206e6f74206f60008201527f776e6572206e6f7220617070726f766564000000000000000000000000000000602082015250565b6142d3816139fd565b81146142de57600080fd5b50565b6142ea81613a21565b81146142f557600080fd5b50565b61430181613a2d565b811461430c57600080fd5b50565b61431881613a79565b811461432357600080fd5b5056fea2646970667358221220c640a42a6fa561e656a108e468f30e0ed3cdd8379982bae9d83490b9ee36409c64736f6c63430008040033",
  "linkReferences": {},
  "deployedLinkReferences": {}
}