{
  "_format": "hh-sol-artifact-1",
  "contractName": "NFTMarketplace",
  "sourceName": "contracts/NFTMarketplace.sol",
  "abi": [
    {
      "inputs": [],
      "stateMutability": "nonpayable",
      "type": "constructor"
    },
    {
      "anonymous": false,
      "inputs": [
        {
          "indexed": true,
          "internalType": "address",
          "name": "owner",
          "type": "address"
        },
        {
          "indexed": true,
          "internalType": "address",
          "name": "approved",
          "type": "address"
        },
        {
          "indexed": true,
          "internalType": "uint256",
          "name": "tokenId",
          "type": "uint256"
        }
      ],
      "name": "Approval",
      "type": "event"
    },
    {
      "anonymous": false,
      "inputs": [
        {
          "indexed": true,
          "internalType": "address",
          "name": "owner",
          "type": "address"
        },
        {
          "indexed": true,
          "internalType": "address",
          "name": "operator",
          "type": "address"
        },
        {
          "indexed": false,
          "internalType": "bool",
          "name": "approved",
          "type": "bool"
        }
      ],
      "name": "ApprovalForAll",
      "type": "event"
    },
    {
      "anonymous": false,
      "inputs": [
        {
          "indexed": true,
          "internalType": "uint256",
          "name": "tokenId",
          "type": "uint256"
        },
        {
          "indexed": false,
          "internalType": "address",
          "name": "seller",
          "type": "address"
        },
        {
          "indexed": false,
          "internalType": "address",
          "name": "owner",
          "type": "address"
        },
        {
          "indexed": false,
          "internalType": "uint256",
          "name": "price",
          "type": "uint256"
        },
        {
          "indexed": false,
          "internalType": "bool",
          "name": "sold",
          "type": "bool"
        }
      ],
      "name": "MarketItemCreated",
      "type": "event"
    },
    {
      "anonymous": false,
      "inputs": [
        {
          "indexed": true,
          "internalType": "address",
          "name": "from",
          "type": "address"
        },
        {
          "indexed": true,
          "internalType": "address",
          "name": "to",
          "type": "address"
        },
        {
          "indexed": true,
          "internalType": "uint256",
          "name": "tokenId",
          "type": "uint256"
        }
      ],
      "name": "Transfer",
      "type": "event"
    },
    {
      "inputs": [
        {
          "internalType": "address",
          "name": "to",
          "type": "address"
        },
        {
          "internalType": "uint256",
          "name": "tokenId",
          "type": "uint256"
        }
      ],
      "name": "approve",
      "outputs": [],
      "stateMutability": "nonpayable",
      "type": "function"
    },
    {
      "inputs": [
        {
          "internalType": "address",
          "name": "owner",
          "type": "address"
        }
      ],
      "name": "balanceOf",
      "outputs": [
        {
          "internalType": "uint256",
          "name": "",
          "type": "uint256"
        }
      ],
      "stateMutability": "view",
      "type": "function"
    },
    {
      "inputs": [
        {
          "internalType": "uint256",
          "name": "tokenId",
          "type": "uint256"
        }
      ],
      "name": "createMarketSale",
      "outputs": [],
      "stateMutability": "payable",
      "type": "function"
    },
    {
      "inputs": [
        {
          "internalType": "string",
          "name": "tokenURI",
          "type": "string"
        },
        {
          "internalType": "uint256",
          "name": "price",
          "type": "uint256"
        }
      ],
      "name": "createToken",
      "outputs": [
        {
          "internalType": "uint256",
          "name": "",
          "type": "uint256"
        }
      ],
      "stateMutability": "payable",
      "type": "function"
    },
    {
      "inputs": [],
      "name": "fetchItemsListed",
      "outputs": [
        {
          "components": [
            {
              "internalType": "uint256",
              "name": "tokenId",
              "type": "uint256"
            },
            {
              "internalType": "address payable",
              "name": "seller",
              "type": "address"
            },
            {
              "internalType": "address payable",
              "name": "owner",
              "type": "address"
            },
            {
              "internalType": "uint256",
              "name": "price",
              "type": "uint256"
            },
            {
              "internalType": "bool",
              "name": "sold",
              "type": "bool"
            }
          ],
          "internalType": "struct NFTMarketplace.MarketItem[]",
          "name": "",
          "type": "tuple[]"
        }
      ],
      "stateMutability": "view",
      "type": "function"
    },
    {
      "inputs": [],
      "name": "fetchMarketItems",
      "outputs": [
        {
          "components": [
            {
              "internalType": "uint256",
              "name": "tokenId",
              "type": "uint256"
            },
            {
              "internalType": "address payable",
              "name": "seller",
              "type": "address"
            },
            {
              "internalType": "address payable",
              "name": "owner",
              "type": "address"
            },
            {
              "internalType": "uint256",
              "name": "price",
              "type": "uint256"
            },
            {
              "internalType": "bool",
              "name": "sold",
              "type": "bool"
            }
          ],
          "internalType": "struct NFTMarketplace.MarketItem[]",
          "name": "",
          "type": "tuple[]"
        }
      ],
      "stateMutability": "view",
      "type": "function"
    },
    {
      "inputs": [],
      "name": "fetchMyItems",
      "outputs": [
        {
          "components": [
            {
              "internalType": "uint256",
              "name": "tokenId",
              "type": "uint256"
            },
            {
              "internalType": "address payable",
              "name": "seller",
              "type": "address"
            },
            {
              "internalType": "address payable",
              "name": "owner",
              "type": "address"
            },
            {
              "internalType": "uint256",
              "name": "price",
              "type": "uint256"
            },
            {
              "internalType": "bool",
              "name": "sold",
              "type": "bool"
            }
          ],
          "internalType": "struct NFTMarketplace.MarketItem[]",
          "name": "",
          "type": "tuple[]"
        }
      ],
      "stateMutability": "view",
      "type": "function"
    },
    {
      "inputs": [
        {
          "internalType": "uint256",
          "name": "tokenId",
          "type": "uint256"
        }
      ],
      "name": "getApproved",
      "outputs": [
        {
          "internalType": "address",
          "name": "",
          "type": "address"
        }
      ],
      "stateMutability": "view",
      "type": "function"
    },
    {
      "inputs": [],
      "name": "getListingPrice",
      "outputs": [
        {
          "internalType": "uint256",
          "name": "",
          "type": "uint256"
        }
      ],
      "stateMutability": "view",
      "type": "function"
    },
    {
      "inputs": [
        {
          "internalType": "address",
          "name": "owner",
          "type": "address"
        },
        {
          "internalType": "address",
          "name": "operator",
          "type": "address"
        }
      ],
      "name": "isApprovedForAll",
      "outputs": [
        {
          "internalType": "bool",
          "name": "",
          "type": "bool"
        }
      ],
      "stateMutability": "view",
      "type": "function"
    },
    {
      "inputs": [],
      "name": "name",
      "outputs": [
        {
          "internalType": "string",
          "name": "",
          "type": "string"
        }
      ],
      "stateMutability": "view",
      "type": "function"
    },
    {
      "inputs": [
        {
          "internalType": "uint256",
          "name": "tokenId",
          "type": "uint256"
        }
      ],
      "name": "ownerOf",
      "outputs": [
        {
          "internalType": "address",
          "name": "",
          "type": "address"
        }
      ],
      "stateMutability": "view",
      "type": "function"
    },
    {
      "inputs": [
        {
          "internalType": "address",
          "name": "from",
          "type": "address"
        },
        {
          "internalType": "address",
          "name": "to",
          "type": "address"
        },
        {
          "internalType": "uint256",
          "name": "tokenId",
          "type": "uint256"
        }
      ],
      "name": "safeTransferFrom",
      "outputs": [],
      "stateMutability": "nonpayable",
      "type": "function"
    },
    {
      "inputs": [
        {
          "internalType": "address",
          "name": "from",
          "type": "address"
        },
        {
          "internalType": "address",
          "name": "to",
          "type": "address"
        },
        {
          "internalType": "uint256",
          "name": "tokenId",
          "type": "uint256"
        },
        {
          "internalType": "bytes",
          "name": "_data",
          "type": "bytes"
        }
      ],
      "name": "safeTransferFrom",
      "outputs": [],
      "stateMutability": "nonpayable",
      "type": "function"
    },
    {
      "inputs": [
        {
          "internalType": "address",
          "name": "operator",
          "type": "address"
        },
        {
          "internalType": "bool",
          "name": "approved",
          "type": "bool"
        }
      ],
      "name": "setApprovalForAll",
      "outputs": [],
      "stateMutability": "nonpayable",
      "type": "function"
    },
    {
      "inputs": [
        {
          "internalType": "bytes4",
          "name": "interfaceId",
          "type": "bytes4"
        }
      ],
      "name": "supportsInterface",
      "outputs": [
        {
          "internalType": "bool",
          "name": "",
          "type": "bool"
        }
      ],
      "stateMutability": "view",
      "type": "function"
    },
    {
      "inputs": [],
      "name": "symbol",
      "outputs": [
        {
          "internalType": "string",
          "name": "",
          "type": "string"
        }
      ],
      "stateMutability": "view",
      "type": "function"
    },
    {
      "inputs": [
        {
          "internalType": "uint256",
          "name": "tokenId",
          "type": "uint256"
        }
      ],
      "name": "tokenURI",
      "outputs": [
        {
          "internalType": "string",
          "name": "",
          "type": "string"
        }
      ],
      "stateMutability": "view",
      "type": "function"
    },
    {
      "inputs": [
        {
          "internalType": "address",
          "name": "from",
          "type": "address"
        },
        {
          "internalType": "address",
          "name": "to",
          "type": "address"
        },
        {
          "internalType": "uint256",
          "name": "tokenId",
          "type": "uint256"
        }
      ],
      "name": "transferFrom",
      "outputs": [],
      "stateMutability": "nonpayable",
      "type": "function"
    },
    {
      "inputs": [
        {
          "internalType": "uint256",
          "name": "_listingPrice",
          "type": "uint256"
        }
      ],
      "name": "updateListingPrice",
      "outputs": [],
      "stateMutability": "nonpayable",
      "type": "function"
    }
  ],
  "bytecode": "0x60806040526658d15e176280006009553480156200001c57600080fd5b506040518060400160405280601081526020017f4d657461766572736520546f6b656e73000000000000000000000000000000008152506040518060400160405280600481526020017f4d455454000000000000000000000000000000000000000000000000000000008152508160009080519060200190620000a192919062000104565b508060019080519060200190620000ba92919062000104565b50505033600a60006101000a81548173ffffffffffffffffffffffffffffffffffffffff021916908373ffffffffffffffffffffffffffffffffffffffff16021790555062000219565b8280546200011290620001b4565b90600052602060002090601f01602090048101928262000136576000855562000182565b82601f106200015157805160ff191683800117855562000182565b8280016001018555821562000182579182015b828111156200018157825182559160200191906001019062000164565b5b50905062000191919062000195565b5090565b5b80821115620001b057600081600090555060010162000196565b5090565b60006002820490506001821680620001cd57607f821691505b60208210811415620001e457620001e3620001ea565b5b50919050565b7f4e487b7100000000000000000000000000000000000000000000000000000000600052602260045260246000fd5b613f5a80620002296000396000f3fe60806040526004361061011f5760003560e01c80636352211e116100a0578063ae677aa311610064578063ae677aa3146103ee578063b88d4fde14610417578063be9af53614610440578063c87b56dd1461045c578063e985e9c5146104995761011f565b80636352211e146102f057806370a082311461032d57806372b3b6201461036a57806395d89b411461039a578063a22cb465146103c55761011f565b806312e85585116100e757806312e855851461021d57806315c9ae101461024857806323b872dd1461027357806342842e0e1461029c57806345f8fa80146102c55761011f565b806301ffc9a71461012457806306fdde0314610161578063081812fc1461018c578063095ea7b3146101c95780630f08efe0146101f2575b600080fd5b34801561013057600080fd5b5061014b60048036038101906101469190612bd4565b6104d6565b604051610158919061322c565b60405180910390f35b34801561016d57600080fd5b506101766105b8565b6040516101839190613247565b60405180910390f35b34801561019857600080fd5b506101b360048036038101906101ae9190612c7a565b61064a565b6040516101c0919061315e565b60405180910390f35b3480156101d557600080fd5b506101f060048036038101906101eb9190612b98565b6106cf565b005b3480156101fe57600080fd5b506102076107e7565b604051610214919061320a565b60405180910390f35b34801561022957600080fd5b50610232610a87565b60405161023f91906134e9565b60405180910390f35b34801561025457600080fd5b5061025d610a91565b60405161026a919061320a565b60405180910390f35b34801561027f57600080fd5b5061029a60048036038101906102959190612a92565b610dc5565b005b3480156102a857600080fd5b506102c360048036038101906102be9190612a92565b610e25565b005b3480156102d157600080fd5b506102da610e45565b6040516102e7919061320a565b60405180910390f35b3480156102fc57600080fd5b5061031760048036038101906103129190612c7a565b611179565b604051610324919061315e565b60405180910390f35b34801561033957600080fd5b50610354600480360381019061034f9190612a2d565b61122b565b60405161036191906134e9565b60405180910390f35b610384600480360381019061037f9190612c26565b6112e3565b60405161039191906134e9565b60405180910390f35b3480156103a657600080fd5b506103af611325565b6040516103bc9190613247565b60405180910390f35b3480156103d157600080fd5b506103ec60048036038101906103e79190612b5c565b6113b7565b005b3480156103fa57600080fd5b5061041560048036038101906104109190612c7a565b6113cd565b005b34801561042357600080fd5b5061043e60048036038101906104399190612ae1565b611467565b005b61045a60048036038101906104559190612c7a565b6114c9565b005b34801561046857600080fd5b50610483600480360381019061047e9190612c7a565b6116c5565b6040516104909190613247565b60405180910390f35b3480156104a557600080fd5b506104c060048036038101906104bb9190612a56565b611817565b6040516104cd919061322c565b60405180910390f35b60007f80ac58cd000000000000000000000000000000000000000000000000000000007bffffffffffffffffffffffffffffffffffffffffffffffffffffffff1916827bffffffffffffffffffffffffffffffffffffffffffffffffffffffff191614806105a157507f5b5e139f000000000000000000000000000000000000000000000000000000007bffffffffffffffffffffffffffffffffffffffffffffffffffffffff1916827bffffffffffffffffffffffffffffffffffffffffffffffffffffffff1916145b806105b157506105b0826118ab565b5b9050919050565b6060600080546105c79061378a565b80601f01602080910402602001604051908101604052809291908181526020018280546105f39061378a565b80156106405780601f1061061557610100808354040283529160200191610640565b820191906000526020600020905b81548152906001019060200180831161062357829003601f168201915b5050505050905090565b600061065582611915565b610694576040517f08c379a000000000000000000000000000000000000000000000000000000000815260040161068b90613429565b60405180910390fd5b6004600083815260200190815260200160002060009054906101000a900473ffffffffffffffffffffffffffffffffffffffff169050919050565b60006106da82611179565b90508073ffffffffffffffffffffffffffffffffffffffff168373ffffffffffffffffffffffffffffffffffffffff16141561074b576040517f08c379a000000000000000000000000000000000000000000000000000000000815260040161074290613489565b60405180910390fd5b8073ffffffffffffffffffffffffffffffffffffffff1661076a611981565b73ffffffffffffffffffffffffffffffffffffffff161480610799575061079881610793611981565b611817565b5b6107d8576040517f08c379a00000000000000000000000000000000000000000000000000000000081526004016107cf90613349565b60405180910390fd5b6107e28383611989565b505050565b606060006107f56007611a42565b905060006108036008611a42565b8261080e919061368e565b90506000808267ffffffffffffffff811115610853577f4e487b7100000000000000000000000000000000000000000000000000000000600052604160045260246000fd5b60405190808252806020026020018201604052801561088c57816020015b6108796127f4565b8152602001906001900390816108715790505b50905060005b84811015610a7c5760006001826108a99190613607565b90503073ffffffffffffffffffffffffffffffffffffffff16600b600083815260200190815260200160002060020160009054906101000a900473ffffffffffffffffffffffffffffffffffffffff1673ffffffffffffffffffffffffffffffffffffffff161415610a68576000600b60008381526020019081526020016000209050806040518060a0016040529081600082015481526020016001820160009054906101000a900473ffffffffffffffffffffffffffffffffffffffff1673ffffffffffffffffffffffffffffffffffffffff1673ffffffffffffffffffffffffffffffffffffffff1681526020016002820160009054906101000a900473ffffffffffffffffffffffffffffffffffffffff1673ffffffffffffffffffffffffffffffffffffffff1673ffffffffffffffffffffffffffffffffffffffff168152602001600382015481526020016004820160009054906101000a900460ff161515151581525050848681518110610a4c577f4e487b7100000000000000000000000000000000000000000000000000000000600052603260045260246000fd5b6020026020010181905250600185610a649190613607565b9450505b508080610a74906137ed565b915050610892565b508094505050505090565b6000600954905090565b60606000610a9f6007611a42565b905060008060005b83811015610b4e576000600182610abe9190613607565b90503373ffffffffffffffffffffffffffffffffffffffff16600b600083815260200190815260200160002060020160009054906101000a900473ffffffffffffffffffffffffffffffffffffffff1673ffffffffffffffffffffffffffffffffffffffff161415610b3a57600184610b379190613607565b93505b508080610b46906137ed565b915050610aa7565b5060008267ffffffffffffffff811115610b91577f4e487b7100000000000000000000000000000000000000000000000000000000600052604160045260246000fd5b604051908082528060200260200182016040528015610bca57816020015b610bb76127f4565b815260200190600190039081610baf5790505b50905060005b84811015610dba576000600182610be79190613607565b90503373ffffffffffffffffffffffffffffffffffffffff16600b600083815260200190815260200160002060020160009054906101000a900473ffffffffffffffffffffffffffffffffffffffff1673ffffffffffffffffffffffffffffffffffffffff161415610da6576000600b60008381526020019081526020016000209050806040518060a0016040529081600082015481526020016001820160009054906101000a900473ffffffffffffffffffffffffffffffffffffffff1673ffffffffffffffffffffffffffffffffffffffff1673ffffffffffffffffffffffffffffffffffffffff1681526020016002820160009054906101000a900473ffffffffffffffffffffffffffffffffffffffff1673ffffffffffffffffffffffffffffffffffffffff1673ffffffffffffffffffffffffffffffffffffffff168152602001600382015481526020016004820160009054906101000a900460ff161515151581525050848681518110610d8a577f4e487b7100000000000000000000000000000000000000000000000000000000600052603260045260246000fd5b6020026020010181905250600185610da29190613607565b9450505b508080610db2906137ed565b915050610bd0565b508094505050505090565b610dd6610dd0611981565b82611a50565b610e15576040517f08c379a0000000000000000000000000000000000000000000000000000000008152600401610e0c906134c9565b60405180910390fd5b610e20838383611b2e565b505050565b610e4083838360405180602001604052806000815250611467565b505050565b60606000610e536007611a42565b905060008060005b83811015610f02576000600182610e729190613607565b90503373ffffffffffffffffffffffffffffffffffffffff16600b600083815260200190815260200160002060010160009054906101000a900473ffffffffffffffffffffffffffffffffffffffff1673ffffffffffffffffffffffffffffffffffffffff161415610eee57600184610eeb9190613607565b93505b508080610efa906137ed565b915050610e5b565b5060008267ffffffffffffffff811115610f45577f4e487b7100000000000000000000000000000000000000000000000000000000600052604160045260246000fd5b604051908082528060200260200182016040528015610f7e57816020015b610f6b6127f4565b815260200190600190039081610f635790505b50905060005b8481101561116e576000600182610f9b9190613607565b90503373ffffffffffffffffffffffffffffffffffffffff16600b600083815260200190815260200160002060010160009054906101000a900473ffffffffffffffffffffffffffffffffffffffff1673ffffffffffffffffffffffffffffffffffffffff16141561115a576000600b60008381526020019081526020016000209050806040518060a0016040529081600082015481526020016001820160009054906101000a900473ffffffffffffffffffffffffffffffffffffffff1673ffffffffffffffffffffffffffffffffffffffff1673ffffffffffffffffffffffffffffffffffffffff1681526020016002820160009054906101000a900473ffffffffffffffffffffffffffffffffffffffff1673ffffffffffffffffffffffffffffffffffffffff1673ffffffffffffffffffffffffffffffffffffffff168152602001600382015481526020016004820160009054906101000a900460ff16151515158152505084868151811061113e577f4e487b7100000000000000000000000000000000000000000000000000000000600052603260045260246000fd5b60200260200101819052506001856111569190613607565b9450505b508080611166906137ed565b915050610f84565b508094505050505090565b6000806002600084815260200190815260200160002060009054906101000a900473ffffffffffffffffffffffffffffffffffffffff169050600073ffffffffffffffffffffffffffffffffffffffff168173ffffffffffffffffffffffffffffffffffffffff161415611222576040517f08c379a000000000000000000000000000000000000000000000000000000000815260040161121990613389565b60405180910390fd5b80915050919050565b60008073ffffffffffffffffffffffffffffffffffffffff168273ffffffffffffffffffffffffffffffffffffffff16141561129c576040517f08c379a000000000000000000000000000000000000000000000000000000000815260040161129390613369565b60405180910390fd5b600360008373ffffffffffffffffffffffffffffffffffffffff1673ffffffffffffffffffffffffffffffffffffffff168152602001908152602001600020549050919050565b60006112ef6007611d95565b60006112fb6007611a42565b90506113073382611dab565b6113118185611f85565b61131b8184611ff9565b8091505092915050565b6060600180546113349061378a565b80601f01602080910402602001604051908101604052809291908181526020018280546113609061378a565b80156113ad5780601f10611382576101008083540402835291602001916113ad565b820191906000526020600020905b81548152906001019060200180831161139057829003601f168201915b5050505050905090565b6113c96113c2611981565b83836121fc565b5050565b3373ffffffffffffffffffffffffffffffffffffffff16600a60009054906101000a900473ffffffffffffffffffffffffffffffffffffffff1673ffffffffffffffffffffffffffffffffffffffff161461145d576040517f08c379a0000000000000000000000000000000000000000000000000000000008152600401611454906132c9565b60405180910390fd5b8060098190555050565b611478611472611981565b83611a50565b6114b7576040517f08c379a00000000000000000000000000000000000000000000000000000000081526004016114ae906134c9565b60405180910390fd5b6114c384848484612369565b50505050565b6000600b6000838152602001908152602001600020905060008160030154905080341461152b576040517f08c379a0000000000000000000000000000000000000000000000000000000008152600401611522906133c9565b60405180910390fd5b60008260010160009054906101000a900473ffffffffffffffffffffffffffffffffffffffff169050338360020160006101000a81548173ffffffffffffffffffffffffffffffffffffffff021916908373ffffffffffffffffffffffffffffffffffffffff16021790555060018360040160006101000a81548160ff02191690831515021790555060008360010160006101000a81548173ffffffffffffffffffffffffffffffffffffffff021916908373ffffffffffffffffffffffffffffffffffffffff1602179055506116026008611d95565b61160d303386611b2e565b600a60009054906101000a900473ffffffffffffffffffffffffffffffffffffffff1673ffffffffffffffffffffffffffffffffffffffff166108fc6009549081150290604051600060405180830381858888f19350505050158015611677573d6000803e3d6000fd5b508073ffffffffffffffffffffffffffffffffffffffff166108fc349081150290604051600060405180830381858888f193505050501580156116be573d6000803e3d6000fd5b5050505050565b60606116d082611915565b61170f576040517f08c379a000000000000000000000000000000000000000000000000000000000815260040161170690613409565b60405180910390fd5b600060066000848152602001908152602001600020805461172f9061378a565b80601f016020809104026020016040519081016040528092919081815260200182805461175b9061378a565b80156117a85780601f1061177d576101008083540402835291602001916117a8565b820191906000526020600020905b81548152906001019060200180831161178b57829003601f168201915b5050505050905060006117b96123c5565b90506000815114156117cf578192505050611812565b6000825111156118045780826040516020016117ec92919061313a565b60405160208183030381529060405292505050611812565b61180d846123dc565b925050505b919050565b6000600560008473ffffffffffffffffffffffffffffffffffffffff1673ffffffffffffffffffffffffffffffffffffffff16815260200190815260200160002060008373ffffffffffffffffffffffffffffffffffffffff1673ffffffffffffffffffffffffffffffffffffffff16815260200190815260200160002060009054906101000a900460ff16905092915050565b60007f01ffc9a7000000000000000000000000000000000000000000000000000000007bffffffffffffffffffffffffffffffffffffffffffffffffffffffff1916827bffffffffffffffffffffffffffffffffffffffffffffffffffffffff1916149050919050565b60008073ffffffffffffffffffffffffffffffffffffffff166002600084815260200190815260200160002060009054906101000a900473ffffffffffffffffffffffffffffffffffffffff1673ffffffffffffffffffffffffffffffffffffffff1614159050919050565b600033905090565b816004600083815260200190815260200160002060006101000a81548173ffffffffffffffffffffffffffffffffffffffff021916908373ffffffffffffffffffffffffffffffffffffffff160217905550808273ffffffffffffffffffffffffffffffffffffffff166119fc83611179565b73ffffffffffffffffffffffffffffffffffffffff167f8c5be1e5ebec7d5bd14f71427d1e84f3dd0314c0f7b2291e5b200ac8c7c3b92560405160405180910390a45050565b600081600001549050919050565b6000611a5b82611915565b611a9a576040517f08c379a0000000000000000000000000000000000000000000000000000000008152600401611a9190613329565b60405180910390fd5b6000611aa583611179565b90508073ffffffffffffffffffffffffffffffffffffffff168473ffffffffffffffffffffffffffffffffffffffff161480611b1457508373ffffffffffffffffffffffffffffffffffffffff16611afc8461064a565b73ffffffffffffffffffffffffffffffffffffffff16145b80611b255750611b248185611817565b5b91505092915050565b8273ffffffffffffffffffffffffffffffffffffffff16611b4e82611179565b73ffffffffffffffffffffffffffffffffffffffff1614611ba4576040517f08c379a0000000000000000000000000000000000000000000000000000000008152600401611b9b90613289565b60405180910390fd5b600073ffffffffffffffffffffffffffffffffffffffff168273ffffffffffffffffffffffffffffffffffffffff161415611c14576040517f08c379a0000000000000000000000000000000000000000000000000000000008152600401611c0b906132e9565b60405180910390fd5b611c1f838383612483565b611c2a600082611989565b6001600360008573ffffffffffffffffffffffffffffffffffffffff1673ffffffffffffffffffffffffffffffffffffffff1681526020019081526020016000206000828254611c7a919061368e565b925050819055506001600360008473ffffffffffffffffffffffffffffffffffffffff1673ffffffffffffffffffffffffffffffffffffffff1681526020019081526020016000206000828254611cd19190613607565b92505081905550816002600083815260200190815260200160002060006101000a81548173ffffffffffffffffffffffffffffffffffffffff021916908373ffffffffffffffffffffffffffffffffffffffff160217905550808273ffffffffffffffffffffffffffffffffffffffff168473ffffffffffffffffffffffffffffffffffffffff167fddf252ad1be2c89b69c2b068fc378daa952ba7f163c4a11628f55a4df523b3ef60405160405180910390a4611d90838383612488565b505050565b6001816000016000828254019250508190555050565b600073ffffffffffffffffffffffffffffffffffffffff168273ffffffffffffffffffffffffffffffffffffffff161415611e1b576040517f08c379a0000000000000000000000000000000000000000000000000000000008152600401611e12906133e9565b60405180910390fd5b611e2481611915565b15611e64576040517f08c379a0000000000000000000000000000000000000000000000000000000008152600401611e5b906132a9565b60405180910390fd5b611e7060008383612483565b6001600360008473ffffffffffffffffffffffffffffffffffffffff1673ffffffffffffffffffffffffffffffffffffffff1681526020019081526020016000206000828254611ec09190613607565b92505081905550816002600083815260200190815260200160002060006101000a81548173ffffffffffffffffffffffffffffffffffffffff021916908373ffffffffffffffffffffffffffffffffffffffff160217905550808273ffffffffffffffffffffffffffffffffffffffff16600073ffffffffffffffffffffffffffffffffffffffff167fddf252ad1be2c89b69c2b068fc378daa952ba7f163c4a11628f55a4df523b3ef60405160405180910390a4611f8160008383612488565b5050565b611f8e82611915565b611fcd576040517f08c379a0000000000000000000000000000000000000000000000000000000008152600401611fc4906133a9565b60405180910390fd5b80600660008481526020019081526020016000209080519060200190611ff4929190612851565b505050565b6000811161203c576040517f08c379a000000000000000000000000000000000000000000000000000000000815260040161203390613469565b60405180910390fd5b6009543414612080576040517f08c379a0000000000000000000000000000000000000000000000000000000008152600401612077906134a9565b60405180910390fd5b6040518060a001604052808381526020013373ffffffffffffffffffffffffffffffffffffffff1681526020013073ffffffffffffffffffffffffffffffffffffffff16815260200182815260200160001515815250600b60008481526020019081526020016000206000820151816000015560208201518160010160006101000a81548173ffffffffffffffffffffffffffffffffffffffff021916908373ffffffffffffffffffffffffffffffffffffffff16021790555060408201518160020160006101000a81548173ffffffffffffffffffffffffffffffffffffffff021916908373ffffffffffffffffffffffffffffffffffffffff1602179055506060820151816003015560808201518160040160006101000a81548160ff0219169083151502179055509050506121b9333084611b2e565b817fb640004f1d14576d0c209e240cad0410e0d8c0c33a09375861fbadae2588a98d33308460006040516121f09493929190613179565b60405180910390a25050565b8173ffffffffffffffffffffffffffffffffffffffff168373ffffffffffffffffffffffffffffffffffffffff16141561226b576040517f08c379a000000000000000000000000000000000000000000000000000000000815260040161226290613309565b60405180910390fd5b80600560008573ffffffffffffffffffffffffffffffffffffffff1673ffffffffffffffffffffffffffffffffffffffff16815260200190815260200160002060008473ffffffffffffffffffffffffffffffffffffffff1673ffffffffffffffffffffffffffffffffffffffff16815260200190815260200160002060006101000a81548160ff0219169083151502179055508173ffffffffffffffffffffffffffffffffffffffff168373ffffffffffffffffffffffffffffffffffffffff167f17307eab39ab6107e8899845ad3d59bd9653f200f220920489ca2b5937696c318360405161235c919061322c565b60405180910390a3505050565b612374848484611b2e565b6123808484848461248d565b6123bf576040517f08c379a00000000000000000000000000000000000000000000000000000000081526004016123b690613269565b60405180910390fd5b50505050565b606060405180602001604052806000815250905090565b60606123e782611915565b612426576040517f08c379a000000000000000000000000000000000000000000000000000000000815260040161241d90613449565b60405180910390fd5b60006124306123c5565b90506000815111612450576040518060200160405280600081525061247b565b8061245a84612624565b60405160200161246b92919061313a565b6040516020818303038152906040525b915050919050565b505050565b505050565b60006124ae8473ffffffffffffffffffffffffffffffffffffffff166127d1565b15612617578373ffffffffffffffffffffffffffffffffffffffff1663150b7a026124d7611981565b8786866040518563ffffffff1660e01b81526004016124f994939291906131be565b602060405180830381600087803b15801561251357600080fd5b505af192505050801561254457506040513d601f19601f820116820180604052508101906125419190612bfd565b60015b6125c7573d8060008114612574576040519150601f19603f3d011682016040523d82523d6000602084013e612579565b606091505b506000815114156125bf576040517f08c379a00000000000000000000000000000000000000000000000000000000081526004016125b690613269565b60405180910390fd5b805181602001fd5b63150b7a0260e01b7bffffffffffffffffffffffffffffffffffffffffffffffffffffffff1916817bffffffffffffffffffffffffffffffffffffffffffffffffffffffff19161491505061261c565b600190505b949350505050565b6060600082141561266c576040518060400160405280600181526020017f300000000000000000000000000000000000000000000000000000000000000081525090506127cc565b600082905060005b6000821461269e578080612687906137ed565b915050600a82612697919061365d565b9150612674565b60008167ffffffffffffffff8111156126e0577f4e487b7100000000000000000000000000000000000000000000000000000000600052604160045260246000fd5b6040519080825280601f01601f1916602001820160405280156127125781602001600182028036833780820191505090505b5090505b600085146127c55760018261272b919061368e565b9150600a8561273a9190613836565b60306127469190613607565b60f81b818381518110612782577f4e487b7100000000000000000000000000000000000000000000000000000000600052603260045260246000fd5b60200101907effffffffffffffffffffffffffffffffffffffffffffffffffffffffffffff1916908160001a905350600a856127be919061365d565b9450612716565b8093505050505b919050565b6000808273ffffffffffffffffffffffffffffffffffffffff163b119050919050565b6040518060a0016040528060008152602001600073ffffffffffffffffffffffffffffffffffffffff168152602001600073ffffffffffffffffffffffffffffffffffffffff168152602001600081526020016000151581525090565b82805461285d9061378a565b90600052602060002090601f01602090048101928261287f57600085556128c6565b82601f1061289857805160ff19168380011785556128c6565b828001600101855582156128c6579182015b828111156128c55782518255916020019190600101906128aa565b5b5090506128d391906128d7565b5090565b5b808211156128f05760008160009055506001016128d8565b5090565b600061290761290284613529565b613504565b90508281526020810184848401111561291f57600080fd5b61292a848285613748565b509392505050565b60006129456129408461355a565b613504565b90508281526020810184848401111561295d57600080fd5b612968848285613748565b509392505050565b60008135905061297f81613ec8565b92915050565b60008135905061299481613edf565b92915050565b6000813590506129a981613ef6565b92915050565b6000815190506129be81613ef6565b92915050565b600082601f8301126129d557600080fd5b81356129e58482602086016128f4565b91505092915050565b600082601f8301126129ff57600080fd5b8135612a0f848260208601612932565b91505092915050565b600081359050612a2781613f0d565b92915050565b600060208284031215612a3f57600080fd5b6000612a4d84828501612970565b91505092915050565b60008060408385031215612a6957600080fd5b6000612a7785828601612970565b9250506020612a8885828601612970565b9150509250929050565b600080600060608486031215612aa757600080fd5b6000612ab586828701612970565b9350506020612ac686828701612970565b9250506040612ad786828701612a18565b9150509250925092565b60008060008060808587031215612af757600080fd5b6000612b0587828801612970565b9450506020612b1687828801612970565b9350506040612b2787828801612a18565b925050606085013567ffffffffffffffff811115612b4457600080fd5b612b50878288016129c4565b91505092959194509250565b60008060408385031215612b6f57600080fd5b6000612b7d85828601612970565b9250506020612b8e85828601612985565b9150509250929050565b60008060408385031215612bab57600080fd5b6000612bb985828601612970565b9250506020612bca85828601612a18565b9150509250929050565b600060208284031215612be657600080fd5b6000612bf48482850161299a565b91505092915050565b600060208284031215612c0f57600080fd5b6000612c1d848285016129af565b91505092915050565b60008060408385031215612c3957600080fd5b600083013567ffffffffffffffff811115612c5357600080fd5b612c5f858286016129ee565b9250506020612c7085828601612a18565b9150509250929050565b600060208284031215612c8c57600080fd5b6000612c9a84828501612a18565b91505092915050565b6000612caf83836130b4565b60a08301905092915050565b612cc4816136d4565b82525050565b612cd3816136c2565b82525050565b6000612ce48261359b565b612cee81856135c9565b9350612cf98361358b565b8060005b83811015612d2a578151612d118882612ca3565b9750612d1c836135bc565b925050600181019050612cfd565b5085935050505092915050565b612d40816136e6565b82525050565b612d4f816136e6565b82525050565b6000612d60826135a6565b612d6a81856135da565b9350612d7a818560208601613757565b612d8381613923565b840191505092915050565b6000612d99826135b1565b612da381856135eb565b9350612db3818560208601613757565b612dbc81613923565b840191505092915050565b6000612dd2826135b1565b612ddc81856135fc565b9350612dec818560208601613757565b80840191505092915050565b6000612e056032836135eb565b9150612e1082613934565b604082019050919050565b6000612e286025836135eb565b9150612e3382613983565b604082019050919050565b6000612e4b601c836135eb565b9150612e56826139d2565b602082019050919050565b6000612e6e6033836135eb565b9150612e79826139fb565b604082019050919050565b6000612e916024836135eb565b9150612e9c82613a4a565b604082019050919050565b6000612eb46019836135eb565b9150612ebf82613a99565b602082019050919050565b6000612ed7602c836135eb565b9150612ee282613ac2565b604082019050919050565b6000612efa6038836135eb565b9150612f0582613b11565b604082019050919050565b6000612f1d602a836135eb565b9150612f2882613b60565b604082019050919050565b6000612f406029836135eb565b9150612f4b82613baf565b604082019050919050565b6000612f63602e836135eb565b9150612f6e82613bfe565b604082019050919050565b6000612f866040836135eb565b9150612f9182613c4d565b604082019050919050565b6000612fa96020836135eb565b9150612fb482613c9c565b602082019050919050565b6000612fcc6031836135eb565b9150612fd782613cc5565b604082019050919050565b6000612fef602c836135eb565b9150612ffa82613d14565b604082019050919050565b6000613012602f836135eb565b915061301d82613d63565b604082019050919050565b60006130356018836135eb565b915061304082613db2565b602082019050919050565b60006130586021836135eb565b915061306382613ddb565b604082019050919050565b600061307b6024836135eb565b915061308682613e2a565b604082019050919050565b600061309e6031836135eb565b91506130a982613e79565b604082019050919050565b60a0820160008201516130ca600085018261311c565b5060208201516130dd6020850182612cbb565b5060408201516130f06040850182612cbb565b506060820151613103606085018261311c565b5060808201516131166080850182612d37565b50505050565b6131258161373e565b82525050565b6131348161373e565b82525050565b60006131468285612dc7565b91506131528284612dc7565b91508190509392505050565b60006020820190506131736000830184612cca565b92915050565b600060808201905061318e6000830187612cca565b61319b6020830186612cca565b6131a8604083018561312b565b6131b56060830184612d46565b95945050505050565b60006080820190506131d36000830187612cca565b6131e06020830186612cca565b6131ed604083018561312b565b81810360608301526131ff8184612d55565b905095945050505050565b600060208201905081810360008301526132248184612cd9565b905092915050565b60006020820190506132416000830184612d46565b92915050565b600060208201905081810360008301526132618184612d8e565b905092915050565b6000602082019050818103600083015261328281612df8565b9050919050565b600060208201905081810360008301526132a281612e1b565b9050919050565b600060208201905081810360008301526132c281612e3e565b9050919050565b600060208201905081810360008301526132e281612e61565b9050919050565b6000602082019050818103600083015261330281612e84565b9050919050565b6000602082019050818103600083015261332281612ea7565b9050919050565b6000602082019050818103600083015261334281612eca565b9050919050565b6000602082019050818103600083015261336281612eed565b9050919050565b6000602082019050818103600083015261338281612f10565b9050919050565b600060208201905081810360008301526133a281612f33565b9050919050565b600060208201905081810360008301526133c281612f56565b9050919050565b600060208201905081810360008301526133e281612f79565b9050919050565b6000602082019050818103600083015261340281612f9c565b9050919050565b6000602082019050818103600083015261342281612fbf565b9050919050565b6000602082019050818103600083015261344281612fe2565b9050919050565b6000602082019050818103600083015261346281613005565b9050919050565b6000602082019050818103600083015261348281613028565b9050919050565b600060208201905081810360008301526134a28161304b565b9050919050565b600060208201905081810360008301526134c28161306e565b9050919050565b600060208201905081810360008301526134e281613091565b9050919050565b60006020820190506134fe600083018461312b565b92915050565b600061350e61351f565b905061351a82826137bc565b919050565b6000604051905090565b600067ffffffffffffffff821115613544576135436138f4565b5b61354d82613923565b9050602081019050919050565b600067ffffffffffffffff821115613575576135746138f4565b5b61357e82613923565b9050602081019050919050565b6000819050602082019050919050565b600081519050919050565b600081519050919050565b600081519050919050565b6000602082019050919050565b600082825260208201905092915050565b600082825260208201905092915050565b600082825260208201905092915050565b600081905092915050565b60006136128261373e565b915061361d8361373e565b9250827fffffffffffffffffffffffffffffffffffffffffffffffffffffffffffffffff0382111561365257613651613867565b5b828201905092915050565b60006136688261373e565b91506136738361373e565b92508261368357613682613896565b5b828204905092915050565b60006136998261373e565b91506136a48361373e565b9250828210156136b7576136b6613867565b5b828203905092915050565b60006136cd8261371e565b9050919050565b60006136df8261371e565b9050919050565b60008115159050919050565b60007fffffffff0000000000000000000000000000000000000000000000000000000082169050919050565b600073ffffffffffffffffffffffffffffffffffffffff82169050919050565b6000819050919050565b82818337600083830152505050565b60005b8381101561377557808201518184015260208101905061375a565b83811115613784576000848401525b50505050565b600060028204905060018216806137a257607f821691505b602082108114156137b6576137b56138c5565b5b50919050565b6137c582613923565b810181811067ffffffffffffffff821117156137e4576137e36138f4565b5b80604052505050565b60006137f88261373e565b91507fffffffffffffffffffffffffffffffffffffffffffffffffffffffffffffffff82141561382b5761382a613867565b5b600182019050919050565b60006138418261373e565b915061384c8361373e565b92508261385c5761385b613896565b5b828206905092915050565b7f4e487b7100000000000000000000000000000000000000000000000000000000600052601160045260246000fd5b7f4e487b7100000000000000000000000000000000000000000000000000000000600052601260045260246000fd5b7f4e487b7100000000000000000000000000000000000000000000000000000000600052602260045260246000fd5b7f4e487b7100000000000000000000000000000000000000000000000000000000600052604160045260246000fd5b6000601f19601f8301169050919050565b7f4552433732313a207472616e7366657220746f206e6f6e20455243373231526560008201527f63656976657220696d706c656d656e7465720000000000000000000000000000602082015250565b7f4552433732313a207472616e736665722066726f6d20696e636f72726563742060008201527f6f776e6572000000000000000000000000000000000000000000000000000000602082015250565b7f4552433732313a20746f6b656e20616c7265616479206d696e74656400000000600082015250565b7f4f6e6c79206d61726b6574706c616365206f776e65722063616e20757064617460008201527f6520746865206c697374696e6720707269636500000000000000000000000000602082015250565b7f4552433732313a207472616e7366657220746f20746865207a65726f2061646460008201527f7265737300000000000000000000000000000000000000000000000000000000602082015250565b7f4552433732313a20617070726f766520746f2063616c6c657200000000000000600082015250565b7f4552433732313a206f70657261746f7220717565727920666f72206e6f6e657860008201527f697374656e7420746f6b656e0000000000000000000000000000000000000000602082015250565b7f4552433732313a20617070726f76652063616c6c6572206973206e6f74206f7760008201527f6e6572206e6f7220617070726f76656420666f7220616c6c0000000000000000602082015250565b7f4552433732313a2062616c616e636520717565727920666f7220746865207a6560008201527f726f206164647265737300000000000000000000000000000000000000000000602082015250565b7f4552433732313a206f776e657220717565727920666f72206e6f6e657869737460008201527f656e7420746f6b656e0000000000000000000000000000000000000000000000602082015250565b7f45524337323155524953746f726167653a2055524920736574206f66206e6f6e60008201527f6578697374656e7420746f6b656e000000000000000000000000000000000000602082015250565b7f506c65617365207375626d6974207468652061736b696e67207072696365206960008201527f6e206f7264657220746f20636f6d706c65746520746865207075726368617365602082015250565b7f4552433732313a206d696e7420746f20746865207a65726f2061646472657373600082015250565b7f45524337323155524953746f726167653a2055524920717565727920666f722060008201527f6e6f6e6578697374656e7420746f6b656e000000000000000000000000000000602082015250565b7f4552433732313a20617070726f76656420717565727920666f72206e6f6e657860008201527f697374656e7420746f6b656e0000000000000000000000000000000000000000602082015250565b7f4552433732314d657461646174613a2055524920717565727920666f72206e6f60008201527f6e6578697374656e7420746f6b656e0000000000000000000000000000000000602082015250565b7f5072696365206d757374206265206174206c6561737420310000000000000000600082015250565b7f4552433732313a20617070726f76616c20746f2063757272656e74206f776e6560008201527f7200000000000000000000000000000000000000000000000000000000000000602082015250565b7f5072696365206d75737420626520657175616c20746f206c697374696e67207060008201527f7269636500000000000000000000000000000000000000000000000000000000602082015250565b7f4552433732313a207472616e736665722063616c6c6572206973206e6f74206f60008201527f776e6572206e6f7220617070726f766564000000000000000000000000000000602082015250565b613ed1816136c2565b8114613edc57600080fd5b50565b613ee8816136e6565b8114613ef357600080fd5b50565b613eff816136f2565b8114613f0a57600080fd5b50565b613f168161373e565b8114613f2157600080fd5b5056fea26469706673582212201b160766f2fc85e70c62a70ec1099d3d9fdff76eded837f368275194db04da0564736f6c63430008040033",
  "linkReferences": {},
  "deployedLinkReferences": {}
}